{
  "transactions": [
    {
      "hash": "0x9cf0bb17814e94d0ffa8185fdfd98edde8c8743cb5cd0d8958ea36881d3ff920",
      "transactionType": "CALL",
      "contractName": "AgentIdentity",
      "contractAddress": "0x7b2aed0cdb291268f3c006a6e9f202d288c46a85",
      "function": "register(string,(string,bytes)[])",
      "arguments": [
        "",
        "[(name, 0x00000000000000000000000000000000000000000000000000000000000000200000000000000000000000000000000000000000000000000000000000000008416c706861426f74000000000000000000000000000000000000000000000000), (strategy, 0x0000000000000000000000000000000000000000000000000000000000000020000000000000000000000000000000000000000000000000000000000000001b5472656e642d666f6c6c6f77696e67202b2047656d696e692041490000000000)]"
      ],
      "transaction": {
        "from": "0x20971f1b701ba0945d9b04e43834b1ebb557ec27",
        "to": "0x7b2aed0cdb291268f3c006a6e9f202d288c46a85",
        "gas": "0x8a0c1",
        "value": "0x2386f26fc10000",
        "input": "0x8ea422860000000000000000000000000000000000000000000000000000000000000040000000000000000000000000000000000000000000000000000000000000006000000000000000000000000000000000000000000000000000000000000000000000000000000000000000000000000000000000000000000000000000000002000000000000000000000000000000000000000000000000000000000000004000000000000000000000000000000000000000000000000000000000000001400000000000000000000000000000000000000000000000000000000000000040000000000000000000000000000000000000000000000000000000000000008000000000000000000000000000000000000000000000000000000000000000046e616d6500000000000000000000000000000000000000000000000000000000000000000000000000000000000000000000000000000000000000000000006000000000000000000000000000000000000000000000000000000000000000200000000000000000000000000000000000000000000000000000000000000008416c706861426f74000000000000000000000000000000000000000000000000000000000000000000000000000000000000000000000000000000000000004000000000000000000000000000000000000000000000000000000000000000800000000000000000000000000000000000000000000000000000000000000008737472617465677900000000000000000000000000000000000000000000000000000000000000000000000000000000000000000000000000000000000000600000000000000000000000000000000000000000000000000000000000000020000000000000000000000000000000000000000000000000000000000000001b5472656e642d666f6c6c6f77696e67202b2047656d696e692041490000000000",
        "nonce": "0x9",
        "chainId": "0x14a34"
      },
      "additionalContracts": [],
      "isFixedGasLimit": false
    },
    {
      "hash": "0x2b045a64d2b9ec42e3fc6d3d9ba4f9b65efeb42fd74c4643925822ded55d0e94",
      "transactionType": "CALL",
      "contractName": "PredictionMarket",
      "contractAddress": "0x07d85a17c65b2c5ef702bfd61bc501bb2537f287",
      "function": "createMarket(string,uint256,uint256,bool,address)",
      "arguments": [
        "Will ETH reach $5,000 by March 2026?",
        "86400",
        "43200",
        "true",
        "0x20971F1B701BA0945D9b04E43834b1eBb557Ec27"
      ],
      "transaction": {
        "from": "0x20971f1b701ba0945d9b04e43834b1ebb557ec27",
        "to": "0x07d85a17c65b2c5ef702bfd61bc501bb2537f287",
        "gas": "0xc3c1b",
        "value": "0x0",
        "input": "0xe518dd9000000000000000000000000000000000000000000000000000000000000000a00000000000000000000000000000000000000000000000000000000000015180000000000000000000000000000000000000000000000000000000000000a8c0000000000000000000000000000000000000000000000000000000000000000100000000000000000000000020971f1b701ba0945d9b04e43834b1ebb557ec27000000000000000000000000000000000000000000000000000000000000002457696c6c204554482072656163682024352c303030206279204d6172636820323032363f00000000000000000000000000000000000000000000000000000000",
        "nonce": "0xa",
        "chainId": "0x14a34"
      },
      "additionalContracts": [],
      "isFixedGasLimit": false
    },
    {
      "hash": "0x4b0fb65edaeb85cb9cbcbc161345523feb6e48f8a3f21ba4d829077b8c9f952e",
      "transactionType": "CALL",
      "contractName": "PredictionMarket",
      "contractAddress": "0x07d85a17c65b2c5ef702bfd61bc501bb2537f287",
      "function": "predict(uint256,uint8)",
      "arguments": [
        "0",
        "0"
      ],
      "transaction": {
        "from": "0x20971f1b701ba0945d9b04e43834b1ebb557ec27",
        "to": "0x07d85a17c65b2c5ef702bfd61bc501bb2537f287",
        "gas": "0x3f98c",
        "value": "0x11c37937e08000",
        "input": "0x84ec1ed200000000000000000000000000000000000000000000000000000000000000000000000000000000000000000000000000000000000000000000000000000000",
        "nonce": "0xb",
        "chainId": "0x14a34"
      },
      "additionalContracts": [],
      "isFixedGasLimit": false
    }
  ],
  "receipts": [
    {
      "status": "0x1",
      "cumulativeGasUsed": "0x5695f6",
      "logs": [
        {
          "address": "0x7b2aed0cdb291268f3c006a6e9f202d288c46a85",
          "topics": [
            "0xddf252ad1be2c89b69c2b068fc378daa952ba7f163c4a11628f55a4df523b3ef",
            "0x0000000000000000000000000000000000000000000000000000000000000000",
            "0x00000000000000000000000020971f1b701ba0945d9b04e43834b1ebb557ec27",
            "0x0000000000000000000000000000000000000000000000000000000000000000"
          ],
          "data": "0x",
          "blockHash": "0xc3a4419cb42cd28389273fcd93d9dbbb10ff178978286c375738c3e9745d1b22",
          "blockNumber": "0x245311f",
          "blockTimestamp": "0x699dc11e",
          "transactionHash": "0x9cf0bb17814e94d0ffa8185fdfd98edde8c8743cb5cd0d8958ea36881d3ff920",
          "transactionIndex": "0x15",
          "logIndex": "0x46",
          "removed": false
        },
        {
          "address": "0x7b2aed0cdb291268f3c006a6e9f202d288c46a85",
          "topics": [
            "0xf8e1a15aba9398e019f0b49df1a4fde98ee17ae345cb5f6b5e2c27f5033e8ce7"
          ],
          "data": "0x0000000000000000000000000000000000000000000000000000000000000000",
          "blockHash": "0xc3a4419cb42cd28389273fcd93d9dbbb10ff178978286c375738c3e9745d1b22",
          "blockNumber": "0x245311f",
          "blockTimestamp": "0x699dc11e",
          "transactionHash": "0x9cf0bb17814e94d0ffa8185fdfd98edde8c8743cb5cd0d8958ea36881d3ff920",
          "transactionIndex": "0x15",
          "logIndex": "0x47",
          "removed": false
        },
        {
          "address": "0x7b2aed0cdb291268f3c006a6e9f202d288c46a85",
          "topics": [
            "0x0025607c3684ab2206e394d59de27f291202c0c51811219084fca969b6ba48b8",
            "0x0000000000000000000000000000000000000000000000000000000000000000"
          ],
          "data": "0x000000000000000000000000000000000000000000000000000000000000002000000000000000000000000000000000000000000000000000000000000000046e616d6500000000000000000000000000000000000000000000000000000000",
          "blockHash": "0xc3a4419cb42cd28389273fcd93d9dbbb10ff178978286c375738c3e9745d1b22",
          "blockNumber": "0x245311f",
          "blockTimestamp": "0x699dc11e",
          "transactionHash": "0x9cf0bb17814e94d0ffa8185fdfd98edde8c8743cb5cd0d8958ea36881d3ff920",
          "transactionIndex": "0x15",
          "logIndex": "0x48",
          "removed": false
        },
        {
          "address": "0x7b2aed0cdb291268f3c006a6e9f202d288c46a85",
          "topics": [
            "0x0025607c3684ab2206e394d59de27f291202c0c51811219084fca969b6ba48b8",
            "0x0000000000000000000000000000000000000000000000000000000000000000"
          ],
          "data": "0x000000000000000000000000000000000000000000000000000000000000002000000000000000000000000000000000000000000000000000000000000000087374726174656779000000000000000000000000000000000000000000000000",
          "blockHash": "0xc3a4419cb42cd28389273fcd93d9dbbb10ff178978286c375738c3e9745d1b22",
          "blockNumber": "0x245311f",
          "blockTimestamp": "0x699dc11e",
          "transactionHash": "0x9cf0bb17814e94d0ffa8185fdfd98edde8c8743cb5cd0d8958ea36881d3ff920",
          "transactionIndex": "0x15",
          "logIndex": "0x49",
          "removed": false
        },
        {
          "address": "0x7b2aed0cdb291268f3c006a6e9f202d288c46a85",
          "topics": [
            "0x0d063c6022bff16d09991a9f91882ffa112f5fb2529136f65eb4c77bbd047e43",
            "0x0000000000000000000000000000000000000000000000000000000000000000",
            "0x00000000000000000000000020971f1b701ba0945d9b04e43834b1ebb557ec27"
          ],
          "data": "0x00000000000000000000000000000000000000000000000000000000000000200000000000000000000000000000000000000000000000000000000000000000",
          "blockHash": "0xc3a4419cb42cd28389273fcd93d9dbbb10ff178978286c375738c3e9745d1b22",
          "blockNumber": "0x245311f",
          "blockTimestamp": "0x699dc11e",
          "transactionHash": "0x9cf0bb17814e94d0ffa8185fdfd98edde8c8743cb5cd0d8958ea36881d3ff920",
          "transactionIndex": "0x15",
          "logIndex": "0x4a",
          "removed": false
        }
      ],
      "logsBloom": "0x000000000000000000000000000080000000000000000000000000000000000000000000000000000000000000000000000000000000000000000000400000000000000008000000000000080000000000001000000800000000000010000000000000000200000000000000000008000000000000000000000000100000000000000000000000000000000000000000000000000000000000000100000000000000000000000000000000000000000020000000000000000000000000000080000000020000004000000000000100000000020000000000000000000000a0000000000000000000200000000000000008000000000000000000000000000000",
      "type": "0x2",
      "transactionHash": "0x9cf0bb17814e94d0ffa8185fdfd98edde8c8743cb5cd0d8958ea36881d3ff920",
      "transactionIndex": "0x15",
      "blockHash": "0xc3a4419cb42cd28389273fcd93d9dbbb10ff178978286c375738c3e9745d1b22",
      "blockNumber": "0x245311f",
      "gasUsed": "0x5e643",
      "effectiveGasPrice": "0x5b8d80",
      "blobGasUsed": "0x601b",
      "from": "0x20971f1b701ba0945d9b04e43834b1ebb557ec27",
      "to": "0x7b2aed0cdb291268f3c006a6e9f202d288c46a85",
      "contractAddress": null,
      "daFootprintGasScalar": "0x8b",
      "l1BaseFeeScalar": "0x44d",
      "l1BlobBaseFee": "0x1",
      "l1BlobBaseFeeScalar": "0xa118b",
      "l1Fee": "0xc6",
      "l1GasPrice": "0x1a",
      "l1GasUsed": "0xb16"
    },
    {
      "status": "0x1",
      "cumulativeGasUsed": "0x5f718d",
      "logs": [
        {
          "address": "0xb3bf0f06b900d88a6d0bc0e6adde13c387eecfce",
          "topics": [
            "0xda593dde2c46c066d7255899ac07277ea6a5055fde063b568c53c344fffd292a",
            "0x0000000000000000000000000000000000000000000000000000000000000000",
            "0x00000000000000000000000031f44fe2d53074a7d6aee9078b201cdf93398af3"
          ],
          "data": "0x00000000000000000000000000000000000000000000000000000000000000000000000000000000000000000000000000000000000000000000000000000001000000000000000000000000000000000000000000000000000000000000008000000000000000000000000000000000000000000000000000000000000000c0000000000000000000000000000000000000000000000000000000000000000f6d61726b65742d6372656174696f6e00000000000000000000000000000000000000000000000000000000000000000000000000000000000000000000000000",
          "blockHash": "0xc3a4419cb42cd28389273fcd93d9dbbb10ff178978286c375738c3e9745d1b22",
          "blockNumber": "0x245311f",
          "blockTimestamp": "0x699dc11e",
          "transactionHash": "0x2b045a64d2b9ec42e3fc6d3d9ba4f9b65efeb42fd74c4643925822ded55d0e94",
          "transactionIndex": "0x16",
          "logIndex": "0x4b",
          "removed": false
        },
        {
          "address": "0x07d85a17c65b2c5ef702bfd61bc501bb2537f287",
          "topics": [
            "0x9a7db709ca65821ccb2ae78b195fd31e61a2bf91fb9633dd017b1bbd6532285a",
            "0x0000000000000000000000000000000000000000000000000000000000000000",
            "0x00000000000000000000000020971f1b701ba0945d9b04e43834b1ebb557ec27"
          ],
          "data": "0x000000000000000000000000000000000000000000000000000000000000006000000000000000000000000000000000000000000000000000000000699f129e0000000000000000000000000000000000000000000000000000000000000001000000000000000000000000000000000000000000000000000000000000002457696c6c204554482072656163682024352c303030206279204d6172636820323032363f00000000000000000000000000000000000000000000000000000000",
          "blockHash": "0xc3a4419cb42cd28389273fcd93d9dbbb10ff178978286c375738c3e9745d1b22",
          "blockNumber": "0x245311f",
          "blockTimestamp": "0x699dc11e",
          "transactionHash": "0x2b045a64d2b9ec42e3fc6d3d9ba4f9b65efeb42fd74c4643925822ded55d0e94",
          "transactionIndex": "0x16",
          "logIndex": "0x4c",
          "removed": false
        }
      ],
      "logsBloom": "0x00000000100000000000000000002000040000000000000000000000000000400000000000000002000000000000000000000000000000000000080000000000000000000000000000000002000000008000000000000000000040000000000000000001020000000000000000000800000000000004000000000000000000000000000000000000000000000000000000000000000000000000010000000000000000000000000000000000000000000000008000000000000000000000000000000000800000000000000000000000000002000000000040000000000020000000000000004000000000000000000008000000000000000000000000000000",
      "type": "0x2",
      "transactionHash": "0x2b045a64d2b9ec42e3fc6d3d9ba4f9b65efeb42fd74c4643925822ded55d0e94",
      "transactionIndex": "0x16",
      "blockHash": "0xc3a4419cb42cd28389273fcd93d9dbbb10ff178978286c375738c3e9745d1b22",
      "blockNumber": "0x245311f",
      "gasUsed": "0x8db97",
      "effectiveGasPrice": "0x5b8d80",
      "blobGasUsed": "0x4e30",
      "from": "0x20971f1b701ba0945d9b04e43834b1ebb557ec27",
      "to": "0x07d85a17c65b2c5ef702bfd61bc501bb2537f287",
      "contractAddress": null,
      "daFootprintGasScalar": "0x8b",
      "l1BaseFeeScalar": "0x44d",
      "l1BlobBaseFee": "0x1",
      "l1BlobBaseFeeScalar": "0xa118b",
      "l1Fee": "0xa1",
      "l1GasPrice": "0x1a",
      "l1GasUsed": "0x90c"
    },
    {
      "status": "0x1",
      "cumulativeGasUsed": "0x622950",
      "logs": [
        {
          "address": "0x07d85a17c65b2c5ef702bfd61bc501bb2537f287",
          "topics": [
            "0xbeeddd9600d16b980f403c752bb9b22a4e59c01bcc56b2c65c5fc7d70ad03d6e",
            "0x0000000000000000000000000000000000000000000000000000000000000000",
            "0x00000000000000000000000020971f1b701ba0945d9b04e43834b1ebb557ec27"
          ],
          "data": "0x00000000000000000000000000000000000000000000000000000000000000000000000000000000000000000000000000000000000000000011c37937e080000000000000000000000000000000000000000000000000000000000000000001",
          "blockHash": "0xc3a4419cb42cd28389273fcd93d9dbbb10ff178978286c375738c3e9745d1b22",
          "blockNumber": "0x245311f",
          "blockTimestamp": "0x699dc11e",
          "transactionHash": "0x4b0fb65edaeb85cb9cbcbc161345523feb6e48f8a3f21ba4d829077b8c9f952e",
          "transactionIndex": "0x17",
          "logIndex": "0x4d",
          "removed": false
        }
      ],
      "logsBloom": "0x00000000000000000000000000002000000000000000000000000000000000000000000000000000000000000000000000000000000000000000000000000000000000000000000000000000000000008000000000000000000000000000000000000000020000000000000000000800080000000004000000000000000000000000000000000000000000000000000000000000000000000000010000000000000000000000000000000000000000000000000000000000000000080000000000000000000000000000000000000000000002000000000000000000000020000000000000000000000000000000000008010000000000000000000000000000",
      "type": "0x2",
      "transactionHash": "0x4b0fb65edaeb85cb9cbcbc161345523feb6e48f8a3f21ba4d829077b8c9f952e",
      "transactionIndex": "0x17",
      "blockHash": "0xc3a4419cb42cd28389273fcd93d9dbbb10ff178978286c375738c3e9745d1b22",
      "blockNumber": "0x245311f",
      "gasUsed": "0x2b7c3",
      "effectiveGasPrice": "0x5b8d80",
      "blobGasUsed": "0x364c",
      "from": "0x20971f1b701ba0945d9b04e43834b1ebb557ec27",
      "to": "0x07d85a17c65b2c5ef702bfd61bc501bb2537f287",
      "contractAddress": null,
      "daFootprintGasScalar": "0x8b",
      "l1BaseFeeScalar": "0x44d",
      "l1BlobBaseFee": "0x1",
      "l1BlobBaseFeeScalar": "0xa118b",
      "l1Fee": "0x6f",
      "l1GasPrice": "0x1a",
      "l1GasUsed": "0x640"
    }
  ],
  "libraries": [],
  "pending": [],
  "returns": {},
  "timestamp": 1771946270198,
  "chain": 84532,
  "commit": "b04815a"
}